{
  "_format": "hh-sol-artifact-1",
  "contractName": "Election",
  "sourceName": "contracts/Election.sol",
  "abi": [
    {
      "inputs": [],
      "stateMutability": "nonpayable",
      "type": "constructor"
    },
    {
      "inputs": [],
      "name": "admin",
      "outputs": [
        {
          "internalType": "address",
          "name": "",
          "type": "address"
        }
      ],
      "stateMutability": "view",
      "type": "function"
    },
    {
      "inputs": [
        {
          "internalType": "uint256",
          "name": "",
          "type": "uint256"
        }
      ],
      "name": "candidates",
      "outputs": [
        {
          "internalType": "string",
          "name": "party",
          "type": "string"
        },
        {
          "internalType": "address",
          "name": "numberid",
          "type": "address"
        },
        {
          "internalType": "uint256",
          "name": "voteCount",
          "type": "uint256"
        }
      ],
      "stateMutability": "view",
      "type": "function"
    },
    {
      "inputs": [
        {
          "internalType": "string",
          "name": "party",
          "type": "string"
        }
      ],
      "name": "getPercentageForCandidate",
      "outputs": [
        {
          "internalType": "uint256",
          "name": "",
          "type": "uint256"
        }
      ],
      "stateMutability": "view",
      "type": "function"
    },
    {
      "inputs": [
        {
          "internalType": "address",
          "name": "_candidateAddress",
          "type": "address"
        }
      ],
      "name": "getVotes",
      "outputs": [
        {
          "internalType": "uint256",
          "name": "",
          "type": "uint256"
        }
      ],
      "stateMutability": "view",
      "type": "function"
    },
    {
      "inputs": [],
      "name": "getYourWinner",
      "outputs": [
        {
          "internalType": "string",
          "name": "",
          "type": "string"
        }
      ],
      "stateMutability": "view",
      "type": "function"
    },
    {
      "inputs": [
        {
          "internalType": "string",
          "name": "_name",
          "type": "string"
        },
        {
          "internalType": "address",
          "name": "_numberid",
          "type": "address"
        }
      ],
      "name": "registerCandidate",
      "outputs": [],
      "stateMutability": "nonpayable",
      "type": "function"
    },
    {
      "inputs": [
        {
          "internalType": "string",
          "name": "_name",
          "type": "string"
        },
        {
          "internalType": "address",
          "name": "_number_id",
          "type": "address"
        }
      ],
      "name": "registerVoter",
      "outputs": [],
      "stateMutability": "nonpayable",
      "type": "function"
    },
    {
      "inputs": [],
      "name": "totalVotes",
      "outputs": [
        {
          "internalType": "uint256",
          "name": "",
          "type": "uint256"
        }
      ],
      "stateMutability": "view",
      "type": "function"
    },
    {
      "inputs": [],
      "name": "viewCandidate",
      "outputs": [
        {
          "components": [
            {
              "internalType": "string",
              "name": "party",
              "type": "string"
            },
            {
              "internalType": "address",
              "name": "numberid",
              "type": "address"
            },
            {
              "internalType": "uint256",
              "name": "voteCount",
              "type": "uint256"
            }
          ],
          "internalType": "struct Election.Candidate[]",
          "name": "",
          "type": "tuple[]"
        }
      ],
      "stateMutability": "view",
      "type": "function"
    },
    {
      "inputs": [],
      "name": "viewVoter",
      "outputs": [
        {
          "components": [
            {
              "internalType": "string",
              "name": "name",
              "type": "string"
            },
            {
              "internalType": "address",
              "name": "number_id",
              "type": "address"
            },
            {
              "internalType": "bool",
              "name": "hasVoted",
              "type": "bool"
            },
            {
              "internalType": "address",
              "name": "votedFor",
              "type": "address"
            }
          ],
          "internalType": "struct Election.Voter[]",
          "name": "",
          "type": "tuple[]"
        }
      ],
      "stateMutability": "view",
      "type": "function"
    },
    {
      "inputs": [
        {
          "internalType": "address",
          "name": "_candidateAddress",
          "type": "address"
        },
        {
          "internalType": "address",
          "name": "_voterAddress",
          "type": "address"
        }
      ],
      "name": "vote",
      "outputs": [],
      "stateMutability": "nonpayable",
      "type": "function"
    },
    {
      "inputs": [
        {
          "internalType": "uint256",
          "name": "",
          "type": "uint256"
        }
      ],
      "name": "voters",
      "outputs": [
        {
          "internalType": "string",
          "name": "name",
          "type": "string"
        },
        {
          "internalType": "address",
          "name": "number_id",
          "type": "address"
        },
        {
          "internalType": "bool",
          "name": "hasVoted",
          "type": "bool"
        },
        {
          "internalType": "address",
          "name": "votedFor",
          "type": "address"
        }
      ],
      "stateMutability": "view",
      "type": "function"
    }
  ],
  "bytecode": "0x608060405234801561001057600080fd5b5033600260006101000a81548173ffffffffffffffffffffffffffffffffffffffff021916908373ffffffffffffffffffffffffffffffffffffffff160217905550612819806100616000396000f3fe608060405234801561001057600080fd5b50600436106100b45760003560e01c80637a9b6fb9116100715780637a9b6fb91461018f5780639ab24eb0146101ab578063a24eb2e7146101db578063a9f6a02f146101f9578063da58c7d914610217578063f851a4401461024a576100b4565b80630d15fd77146100b95780631afa74e5146100d75780632f4d959d146100f35780633477ee2e146101115780633a46c227146101435780634a075de214610173575b600080fd5b6100c1610268565b6040516100ce91906118ab565b60405180910390f35b6100f160048036038101906100ec9190611938565b61026e565b005b6100fb610578565b6040516101089190611a11565b60405180910390f35b61012b60048036038101906101269190611a5f565b6107de565b60405161013a93929190611a9b565b60405180910390f35b61015d60048036038101906101589190611c0e565b6108c0565b60405161016a91906118ab565b60405180910390f35b61018d60048036038101906101889190611c57565b610a66565b005b6101a960048036038101906101a49190611c57565b610de3565b005b6101c560048036038101906101c09190611cb3565b6110e3565b6040516101d291906118ab565b60405180910390f35b6101e361128b565b6040516101f09190611e5a565b60405180910390f35b61020161146c565b60405161020e9190611fbc565b60405180910390f35b610231600480360381019061022c9190611a5f565b6116b4565b6040516102419493929190611fed565b60405180910390f35b6102526117c9565b60405161025f9190612039565b60405180910390f35b60035481565b600080600090505b600180549050811015610317578273ffffffffffffffffffffffffffffffffffffffff16600182815481106102ae576102ad612054565b5b906000526020600020906003020160010160009054906101000a900473ffffffffffffffffffffffffffffffffffffffff1673ffffffffffffffffffffffffffffffffffffffff16141561030457809150610317565b808061030f906120b2565b915050610276565b50600180549050811061035f576040517f08c379a000000000000000000000000000000000000000000000000000000000815260040161035690612147565b60405180910390fd5b60006001828154811061037557610374612054565b5b906000526020600020906003020190508060010160149054906101000a900460ff16156103d7576040517f08c379a00000000000000000000000000000000000000000000000000000000081526004016103ce906121b3565b60405180910390fd5b6000805b600080549050811015610530578573ffffffffffffffffffffffffffffffffffffffff166000828154811061041357610412612054565b5b906000526020600020906003020160010160009054906101000a900473ffffffffffffffffffffffffffffffffffffffff1673ffffffffffffffffffffffffffffffffffffffff16141561051d576001915060018360010160146101000a81548160ff021916908315150217905550858360020160006101000a81548173ffffffffffffffffffffffffffffffffffffffff021916908373ffffffffffffffffffffffffffffffffffffffff160217905550600081815481106104d9576104d8612054565b5b906000526020600020906003020160020160008154809291906104fb906120b2565b919050555060036000815480929190610513906120b2565b9190505550610530565b8080610528906120b2565b9150506103db565b5080610571576040517f08c379a00000000000000000000000000000000000000000000000000000000081526004016105689061221f565b60405180910390fd5b5050505050565b6060600260009054906101000a900473ffffffffffffffffffffffffffffffffffffffff1673ffffffffffffffffffffffffffffffffffffffff163373ffffffffffffffffffffffffffffffffffffffff161461060a576040517f08c379a0000000000000000000000000000000000000000000000000000000008152600401610601906122b1565b60405180910390fd5b60006040518060200160405280600081525090506000805b60008054905081101561074857816000828154811061064457610643612054565b5b906000526020600020906003020160020154111561073557600081815481106106705761066f612054565b5b90600052602060002090600302016002015491506000818154811061069857610697612054565b5b906000526020600020906003020160000180546106b490612300565b80601f01602080910402602001604051908101604052809291908181526020018280546106e090612300565b801561072d5780601f106107025761010080835404028352916020019161072d565b820191906000526020600020905b81548152906001019060200180831161071057829003601f168201915b505050505092505b8080610740906120b2565b915050610622565b5060405160200161075890612363565b604051602081830303815290604052805190602001208260405160200161077f91906123a9565b6040516020818303038152906040528051906020012014156107d6576040517f08c379a00000000000000000000000000000000000000000000000000000000081526004016107cd9061240c565b60405180910390fd5b819250505090565b600081815481106107ee57600080fd5b906000526020600020906003020160009150905080600001805461081190612300565b80601f016020809104026020016040519081016040528092919081815260200182805461083d90612300565b801561088a5780601f1061085f5761010080835404028352916020019161088a565b820191906000526020600020905b81548152906001019060200180831161086d57829003601f168201915b5050505050908060010160009054906101000a900473ffffffffffffffffffffffffffffffffffffffff16908060020154905083565b6000600260009054906101000a900473ffffffffffffffffffffffffffffffffffffffff1673ffffffffffffffffffffffffffffffffffffffff163373ffffffffffffffffffffffffffffffffffffffff1614610952576040517f08c379a0000000000000000000000000000000000000000000000000000000008152600401610949906122b1565b60405180910390fd5b6000805b6000805490508110156109fd578360405160200161097491906123a9565b604051602081830303815290604052805190602001206000828154811061099e5761099d612054565b5b90600052602060002090600302016000016040516020016109bf91906124c0565b6040516020818303038152906040528051906020012014156109ea5781806109e6906120b2565b9250505b80806109f5906120b2565b915050610956565b60006003541415610a43576040517f08c379a0000000000000000000000000000000000000000000000000000000008152600401610a3a90612523565b60405180910390fd5b600354606483610a539190612543565b610a5d91906125cc565b92505050919050565b600260009054906101000a900473ffffffffffffffffffffffffffffffffffffffff1673ffffffffffffffffffffffffffffffffffffffff163373ffffffffffffffffffffffffffffffffffffffff1614610af6576040517f08c379a0000000000000000000000000000000000000000000000000000000008152600401610aed906122b1565b60405180910390fd5b80600260009054906101000a900473ffffffffffffffffffffffffffffffffffffffff1673ffffffffffffffffffffffffffffffffffffffff168173ffffffffffffffffffffffffffffffffffffffff161415610b88576040517f08c379a0000000000000000000000000000000000000000000000000000000008152600401610b7f9061266f565b60405180910390fd5b60006001905060006001808054905010610c4a57600090505b600180549050811015610c49578273ffffffffffffffffffffffffffffffffffffffff1660018281548110610bd957610bd8612054565b5b906000526020600020906003020160010160009054906101000a900473ffffffffffffffffffffffffffffffffffffffff1673ffffffffffffffffffffffffffffffffffffffff161415610c36578180610c32906120b2565b9250505b8080610c41906120b2565b915050610ba1565b5b6001821115610c8e576040517f08c379a0000000000000000000000000000000000000000000000000000000008152600401610c85906126db565b60405180910390fd5b600060405180608001604052808781526020018673ffffffffffffffffffffffffffffffffffffffff1681526020016000151581526020013373ffffffffffffffffffffffffffffffffffffffff16815250905060018190806001815401808255809150506001900390600052602060002090600302016000909190919091506000820151816000019080519060200190610d2a9291906117ef565b5060208201518160010160006101000a81548173ffffffffffffffffffffffffffffffffffffffff021916908373ffffffffffffffffffffffffffffffffffffffff16021790555060408201518160010160146101000a81548160ff02191690831515021790555060608201518160020160006101000a81548173ffffffffffffffffffffffffffffffffffffffff021916908373ffffffffffffffffffffffffffffffffffffffff1602179055505050505050505050565b600260009054906101000a900473ffffffffffffffffffffffffffffffffffffffff1673ffffffffffffffffffffffffffffffffffffffff163373ffffffffffffffffffffffffffffffffffffffff1614610e73576040517f08c379a0000000000000000000000000000000000000000000000000000000008152600401610e6a906122b1565b60405180910390fd5b80600260009054906101000a900473ffffffffffffffffffffffffffffffffffffffff1673ffffffffffffffffffffffffffffffffffffffff168173ffffffffffffffffffffffffffffffffffffffff161415610f05576040517f08c379a0000000000000000000000000000000000000000000000000000000008152600401610efc9061276d565b60405180910390fd5b600060019050600160008054905010610fc65760005b600080549050811015610fc4578273ffffffffffffffffffffffffffffffffffffffff1660008281548110610f5357610f52612054565b5b906000526020600020906003020160010160009054906101000a900473ffffffffffffffffffffffffffffffffffffffff1673ffffffffffffffffffffffffffffffffffffffff161415610fb157600182610fae919061278d565b91505b8080610fbc906120b2565b915050610f1b565b505b600181111561100a576040517f08c379a0000000000000000000000000000000000000000000000000000000008152600401611001906126db565b60405180910390fd5b600060405180606001604052808681526020018573ffffffffffffffffffffffffffffffffffffffff16815260200160008152509050600081908060018154018082558091505060019003906000526020600020906003020160009091909190915060008201518160000190805190602001906110889291906117ef565b5060208201518160010160006101000a81548173ffffffffffffffffffffffffffffffffffffffff021916908373ffffffffffffffffffffffffffffffffffffffff1602179055506040820151816002015550505050505050565b6000600260009054906101000a900473ffffffffffffffffffffffffffffffffffffffff1673ffffffffffffffffffffffffffffffffffffffff163373ffffffffffffffffffffffffffffffffffffffff1614611175576040517f08c379a000000000000000000000000000000000000000000000000000000000815260040161116c906122b1565b60405180910390fd5b60005b600080549050811015611216578273ffffffffffffffffffffffffffffffffffffffff16600082815481106111b0576111af612054565b5b906000526020600020906003020160010160009054906101000a900473ffffffffffffffffffffffffffffffffffffffff1673ffffffffffffffffffffffffffffffffffffffff16141561120357611216565b808061120e906120b2565b915050611178565b600080549050811061125d576040517f08c379a00000000000000000000000000000000000000000000000000000000081526004016112549061221f565b60405180910390fd5b6000818154811061127157611270612054565b5b906000526020600020906003020160020154915050919050565b6060600260009054906101000a900473ffffffffffffffffffffffffffffffffffffffff1673ffffffffffffffffffffffffffffffffffffffff163373ffffffffffffffffffffffffffffffffffffffff161461131d576040517f08c379a0000000000000000000000000000000000000000000000000000000008152600401611314906122b1565b60405180910390fd5b6000805480602002602001604051908101604052809291908181526020016000905b82821015611463578382906000526020600020906003020160405180606001604052908160008201805461137290612300565b80601f016020809104026020016040519081016040528092919081815260200182805461139e90612300565b80156113eb5780601f106113c0576101008083540402835291602001916113eb565b820191906000526020600020905b8154815290600101906020018083116113ce57829003601f168201915b505050505081526020016001820160009054906101000a900473ffffffffffffffffffffffffffffffffffffffff1673ffffffffffffffffffffffffffffffffffffffff1673ffffffffffffffffffffffffffffffffffffffff1681526020016002820154815250508152602001906001019061133f565b50505050905090565b6060600260009054906101000a900473ffffffffffffffffffffffffffffffffffffffff1673ffffffffffffffffffffffffffffffffffffffff163373ffffffffffffffffffffffffffffffffffffffff16146114fe576040517f08c379a00000000000000000000000000000000000000000000000000000000081526004016114f5906122b1565b60405180910390fd5b6001805480602002602001604051908101604052809291908181526020016000905b828210156116ab578382906000526020600020906003020160405180608001604052908160008201805461155390612300565b80601f016020809104026020016040519081016040528092919081815260200182805461157f90612300565b80156115cc5780601f106115a1576101008083540402835291602001916115cc565b820191906000526020600020905b8154815290600101906020018083116115af57829003601f168201915b505050505081526020016001820160009054906101000a900473ffffffffffffffffffffffffffffffffffffffff1673ffffffffffffffffffffffffffffffffffffffff1673ffffffffffffffffffffffffffffffffffffffff1681526020016001820160149054906101000a900460ff161515151581526020016002820160009054906101000a900473ffffffffffffffffffffffffffffffffffffffff1673ffffffffffffffffffffffffffffffffffffffff1673ffffffffffffffffffffffffffffffffffffffff168152505081526020019060010190611520565b50505050905090565b600181815481106116c457600080fd5b90600052602060002090600302016000915090508060000180546116e790612300565b80601f016020809104026020016040519081016040528092919081815260200182805461171390612300565b80156117605780601f1061173557610100808354040283529160200191611760565b820191906000526020600020905b81548152906001019060200180831161174357829003601f168201915b5050505050908060010160009054906101000a900473ffffffffffffffffffffffffffffffffffffffff16908060010160149054906101000a900460ff16908060020160009054906101000a900473ffffffffffffffffffffffffffffffffffffffff16905084565b600260009054906101000a900473ffffffffffffffffffffffffffffffffffffffff1681565b8280546117fb90612300565b90600052602060002090601f01602090048101928261181d5760008555611864565b82601f1061183657805160ff1916838001178555611864565b82800160010185558215611864579182015b82811115611863578251825591602001919060010190611848565b5b5090506118719190611875565b5090565b5b8082111561188e576000816000905550600101611876565b5090565b6000819050919050565b6118a581611892565b82525050565b60006020820190506118c0600083018461189c565b92915050565b6000604051905090565b600080fd5b600080fd5b600073ffffffffffffffffffffffffffffffffffffffff82169050919050565b6000611905826118da565b9050919050565b611915816118fa565b811461192057600080fd5b50565b6000813590506119328161190c565b92915050565b6000806040838503121561194f5761194e6118d0565b5b600061195d85828601611923565b925050602061196e85828601611923565b9150509250929050565b600081519050919050565b600082825260208201905092915050565b60005b838110156119b2578082015181840152602081019050611997565b838111156119c1576000848401525b50505050565b6000601f19601f8301169050919050565b60006119e382611978565b6119ed8185611983565b93506119fd818560208601611994565b611a06816119c7565b840191505092915050565b60006020820190508181036000830152611a2b81846119d8565b905092915050565b611a3c81611892565b8114611a4757600080fd5b50565b600081359050611a5981611a33565b92915050565b600060208284031215611a7557611a746118d0565b5b6000611a8384828501611a4a565b91505092915050565b611a95816118fa565b82525050565b60006060820190508181036000830152611ab581866119d8565b9050611ac46020830185611a8c565b611ad1604083018461189c565b949350505050565b600080fd5b600080fd5b7f4e487b7100000000000000000000000000000000000000000000000000000000600052604160045260246000fd5b611b1b826119c7565b810181811067ffffffffffffffff82111715611b3a57611b39611ae3565b5b80604052505050565b6000611b4d6118c6565b9050611b598282611b12565b919050565b600067ffffffffffffffff821115611b7957611b78611ae3565b5b611b82826119c7565b9050602081019050919050565b82818337600083830152505050565b6000611bb1611bac84611b5e565b611b43565b905082815260208101848484011115611bcd57611bcc611ade565b5b611bd8848285611b8f565b509392505050565b600082601f830112611bf557611bf4611ad9565b5b8135611c05848260208601611b9e565b91505092915050565b600060208284031215611c2457611c236118d0565b5b600082013567ffffffffffffffff811115611c4257611c416118d5565b5b611c4e84828501611be0565b91505092915050565b60008060408385031215611c6e57611c6d6118d0565b5b600083013567ffffffffffffffff811115611c8c57611c8b6118d5565b5b611c9885828601611be0565b9250506020611ca985828601611923565b9150509250929050565b600060208284031215611cc957611cc86118d0565b5b6000611cd784828501611923565b91505092915050565b600081519050919050565b600082825260208201905092915050565b6000819050602082019050919050565b600082825260208201905092915050565b6000611d2882611978565b611d328185611d0c565b9350611d42818560208601611994565b611d4b816119c7565b840191505092915050565b611d5f816118fa565b82525050565b611d6e81611892565b82525050565b60006060830160008301518482036000860152611d918282611d1d565b9150506020830151611da66020860182611d56565b506040830151611db96040860182611d65565b508091505092915050565b6000611dd08383611d74565b905092915050565b6000602082019050919050565b6000611df082611ce0565b611dfa8185611ceb565b935083602082028501611e0c85611cfc565b8060005b85811015611e485784840389528151611e298582611dc4565b9450611e3483611dd8565b925060208a01995050600181019050611e10565b50829750879550505050505092915050565b60006020820190508181036000830152611e748184611de5565b905092915050565b600081519050919050565b600082825260208201905092915050565b6000819050602082019050919050565b60008115159050919050565b611ebd81611ea8565b82525050565b60006080830160008301518482036000860152611ee08282611d1d565b9150506020830151611ef56020860182611d56565b506040830151611f086040860182611eb4565b506060830151611f1b6060860182611d56565b508091505092915050565b6000611f328383611ec3565b905092915050565b6000602082019050919050565b6000611f5282611e7c565b611f5c8185611e87565b935083602082028501611f6e85611e98565b8060005b85811015611faa5784840389528151611f8b8582611f26565b9450611f9683611f3a565b925060208a01995050600181019050611f72565b50829750879550505050505092915050565b60006020820190508181036000830152611fd68184611f47565b905092915050565b611fe781611ea8565b82525050565b6000608082019050818103600083015261200781876119d8565b90506120166020830186611a8c565b6120236040830185611fde565b6120306060830184611a8c565b95945050505050565b600060208201905061204e6000830184611a8c565b92915050565b7f4e487b7100000000000000000000000000000000000000000000000000000000600052603260045260246000fd5b7f4e487b7100000000000000000000000000000000000000000000000000000000600052601160045260246000fd5b60006120bd82611892565b91507fffffffffffffffffffffffffffffffffffffffffffffffffffffffffffffffff8214156120f0576120ef612083565b5b600182019050919050565b7f566f746572206e6f7420666f756e642e00000000000000000000000000000000600082015250565b6000612131601083611983565b915061213c826120fb565b602082019050919050565b6000602082019050818103600083015261216081612124565b9050919050565b7f54686520766f7465722068617320616c726561647920766f7465642e00000000600082015250565b600061219d601c83611983565b91506121a882612167565b602082019050919050565b600060208201905081810360008301526121cc81612190565b9050919050565b7f496e76616c69642063616e6469646174652e0000000000000000000000000000600082015250565b6000612209601283611983565b9150612214826121d3565b602082019050919050565b60006020820190508181036000830152612238816121fc565b9050919050565b7f4163636573732044656e6965642c20456e74657220636f72726563742064657460008201527f61696c7320666f722041646d696e2e0000000000000000000000000000000000602082015250565b600061229b602f83611983565b91506122a68261223f565b604082019050919050565b600060208201905081810360008301526122ca8161228e565b9050919050565b7f4e487b7100000000000000000000000000000000000000000000000000000000600052602260045260246000fd5b6000600282049050600182168061231857607f821691505b6020821081141561232c5761232b6122d1565b5b50919050565b600081905092915050565b50565b600061234d600083612332565b91506123588261233d565b600082019050919050565b600061236e82612340565b9150819050919050565b600061238382611978565b61238d8185612332565b935061239d818560208601611994565b80840191505092915050565b60006123b58284612378565b915081905092915050565b7f496e76616c69642043616e646964617465000000000000000000000000000000600082015250565b60006123f6601183611983565b9150612401826123c0565b602082019050919050565b60006020820190508181036000830152612425816123e9565b9050919050565b60008190508160005260206000209050919050565b6000815461244e81612300565b6124588186612332565b945060018216600081146124735760018114612484576124b7565b60ff198316865281860193506124b7565b61248d8561242c565b60005b838110156124af57815481890152600182019150602081019050612490565b838801955050505b50505092915050565b60006124cc8284612441565b915081905092915050565b7f566f74696e67206973206e6f7420737461727465640000000000000000000000600082015250565b600061250d601583611983565b9150612518826124d7565b602082019050919050565b6000602082019050818103600083015261253c81612500565b9050919050565b600061254e82611892565b915061255983611892565b9250817fffffffffffffffffffffffffffffffffffffffffffffffffffffffffffffffff048311821515161561259257612591612083565b5b828202905092915050565b7f4e487b7100000000000000000000000000000000000000000000000000000000600052601260045260246000fd5b60006125d782611892565b91506125e283611892565b9250826125f2576125f161259d565b5b828204905092915050565b7f41646d696e20616e6420566f7465722068617665207468652073616d6520416460008201527f6472657373000000000000000000000000000000000000000000000000000000602082015250565b6000612659602583611983565b9150612664826125fd565b604082019050919050565b600060208201905081810360008301526126888161264c565b9050919050565b7f496e76616c696420446f75626c656420526567697374726174696f6e00000000600082015250565b60006126c5601c83611983565b91506126d08261268f565b602082019050919050565b600060208201905081810360008301526126f4816126b8565b9050919050565b7f41646d696e20616e642043616e6469646174652068617665207468652073616d60008201527f6520416464726573730000000000000000000000000000000000000000000000602082015250565b6000612757602983611983565b9150612762826126fb565b604082019050919050565b600060208201905081810360008301526127868161274a565b9050919050565b600061279882611892565b91506127a383611892565b9250827fffffffffffffffffffffffffffffffffffffffffffffffffffffffffffffffff038211156127d8576127d7612083565b5b82820190509291505056fea26469706673582212202146a9b64e247e4ac70af21031ea1decf01858f5f437f5d60a7ecd40dfd3425264736f6c63430008090033",
  "linkReferences": {},
  "deployedLinkReferences": {}
}