{
  "_format": "hh-sol-artifact-1",
  "contractName": "Election",
  "sourceName": "contracts/Election.sol",
  "abi": [
    {
      "inputs": [],
      "stateMutability": "nonpayable",
      "type": "constructor"
    },
    {
      "anonymous": false,
      "inputs": [
        {
          "indexed": true,
          "internalType": "uint256",
          "name": "candidateId",
          "type": "uint256"
        },
        {
          "indexed": false,
          "internalType": "string",
          "name": "name",
          "type": "string"
        },
        {
          "indexed": false,
          "internalType": "address",
          "name": "numvotes",
          "type": "address"
        }
      ],
      "name": "CandidateRegistered",
      "type": "event"
    },
    {
      "anonymous": false,
      "inputs": [
        {
          "indexed": false,
          "internalType": "string",
          "name": "name",
          "type": "string"
        },
        {
          "indexed": false,
          "internalType": "address",
          "name": "number_id",
          "type": "address"
        }
      ],
      "name": "VoterRegistered",
      "type": "event"
    },
    {
      "inputs": [],
      "name": "admin",
      "outputs": [
        {
          "internalType": "address",
          "name": "",
          "type": "address"
        }
      ],
      "stateMutability": "view",
      "type": "function"
    },
    {
      "inputs": [
        {
          "internalType": "uint256",
          "name": "",
          "type": "uint256"
        }
      ],
      "name": "candidates",
      "outputs": [
        {
          "internalType": "string",
          "name": "party",
          "type": "string"
        },
        {
          "internalType": "address",
          "name": "numberid",
          "type": "address"
        },
        {
          "internalType": "uint256",
          "name": "voteCount",
          "type": "uint256"
        }
      ],
      "stateMutability": "view",
      "type": "function"
    },
    {
      "inputs": [
        {
          "internalType": "string",
          "name": "party",
          "type": "string"
        }
      ],
      "name": "getPercentageForCandidate",
      "outputs": [
        {
          "internalType": "uint256",
          "name": "",
          "type": "uint256"
        }
      ],
      "stateMutability": "view",
      "type": "function"
    },
    {
      "inputs": [
        {
          "internalType": "address",
          "name": "_candidateAddress",
          "type": "address"
        }
      ],
      "name": "getVotes",
      "outputs": [
        {
          "internalType": "uint256",
          "name": "",
          "type": "uint256"
        }
      ],
      "stateMutability": "view",
      "type": "function"
    },
    {
      "inputs": [],
      "name": "getYourWinner",
      "outputs": [
        {
          "internalType": "string",
          "name": "",
          "type": "string"
        }
      ],
      "stateMutability": "view",
      "type": "function"
    },
    {
      "inputs": [
        {
          "internalType": "string",
          "name": "_name",
          "type": "string"
        },
        {
          "internalType": "address",
          "name": "_numberid",
          "type": "address"
        }
      ],
      "name": "registerCandidate",
      "outputs": [],
      "stateMutability": "nonpayable",
      "type": "function"
    },
    {
      "inputs": [
        {
          "internalType": "string",
          "name": "_name",
          "type": "string"
        },
        {
          "internalType": "address",
          "name": "_number_id",
          "type": "address"
        }
      ],
      "name": "registerVoter",
      "outputs": [],
      "stateMutability": "nonpayable",
      "type": "function"
    },
    {
      "inputs": [],
      "name": "totalVotes",
      "outputs": [
        {
          "internalType": "uint256",
          "name": "",
          "type": "uint256"
        }
      ],
      "stateMutability": "view",
      "type": "function"
    },
    {
      "inputs": [
        {
          "internalType": "address",
          "name": "_candidateAddress",
          "type": "address"
        },
        {
          "internalType": "address",
          "name": "_voterAddress",
          "type": "address"
        }
      ],
      "name": "vote",
      "outputs": [],
      "stateMutability": "nonpayable",
      "type": "function"
    },
    {
      "inputs": [
        {
          "internalType": "uint256",
          "name": "",
          "type": "uint256"
        }
      ],
      "name": "voters",
      "outputs": [
        {
          "internalType": "string",
          "name": "name",
          "type": "string"
        },
        {
          "internalType": "address",
          "name": "number_id",
          "type": "address"
        },
        {
          "internalType": "bool",
          "name": "hasVoted",
          "type": "bool"
        },
        {
          "internalType": "address",
          "name": "votedFor",
          "type": "address"
        }
      ],
      "stateMutability": "view",
      "type": "function"
    }
  ],
  "bytecode": "0x608060405234801561001057600080fd5b5033600260006101000a81548173ffffffffffffffffffffffffffffffffffffffff021916908373ffffffffffffffffffffffffffffffffffffffff16021790555061224e806100616000396000f3fe608060405234801561001057600080fd5b506004361061009e5760003560e01c80634a075de2116100665780634a075de21461015d5780637a9b6fb9146101795780639ab24eb014610195578063da58c7d9146101c5578063f851a440146101f85761009e565b80630d15fd77146100a35780631afa74e5146100c15780632f4d959d146100dd5780633477ee2e146100fb5780633a46c2271461012d575b600080fd5b6100ab610216565b6040516100b8919061156e565b60405180910390f35b6100db60048036038101906100d691906115fb565b61021c565b005b6100e56106cf565b6040516100f291906116d4565b60405180910390f35b61011560048036038101906101109190611722565b6108a5565b6040516101249392919061175e565b60405180910390f35b610147600480360381019061014291906118d1565b610987565b604051610154919061156e565b60405180910390f35b6101776004803603810190610172919061191a565b610b32565b005b610193600480360381019061018e919061191a565b610ef6565b005b6101af60048036038101906101aa9190611976565b611253565b6040516101bc919061156e565b60405180910390f35b6101df60048036038101906101da9190611722565b611377565b6040516101ef94939291906119be565b60405180910390f35b61020061148c565b60405161020d9190611a0a565b60405180910390f35b60035481565b80600260009054906101000a900473ffffffffffffffffffffffffffffffffffffffff1673ffffffffffffffffffffffffffffffffffffffff168173ffffffffffffffffffffffffffffffffffffffff1614156102ae576040517f08c379a00000000000000000000000000000000000000000000000000000000081526004016102a590611a97565b60405180910390fd5b600060019050600180805490501061036e5760005b60018054905081101561036c578273ffffffffffffffffffffffffffffffffffffffff16600182815481106102fb576102fa611ab7565b5b906000526020600020906003020160010160009054906101000a900473ffffffffffffffffffffffffffffffffffffffff1673ffffffffffffffffffffffffffffffffffffffff161415610359576001826103569190611b15565b91505b808061036490611b6b565b9150506102c3565b505b6001811115801561038457506001808054905011155b6103c3576040517f08c379a00000000000000000000000000000000000000000000000000000000081526004016103ba90611c00565b60405180910390fd5b600080600090505b60018054905081101561046c578473ffffffffffffffffffffffffffffffffffffffff166001828154811061040357610402611ab7565b5b906000526020600020906003020160010160009054906101000a900473ffffffffffffffffffffffffffffffffffffffff1673ffffffffffffffffffffffffffffffffffffffff1614156104595780915061046c565b808061046490611b6b565b9150506103cb565b5060018054905081106104b4576040517f08c379a00000000000000000000000000000000000000000000000000000000081526004016104ab90611c6c565b60405180910390fd5b6000600182815481106104ca576104c9611ab7565b5b906000526020600020906003020190508060010160149054906101000a900460ff161561052c576040517f08c379a000000000000000000000000000000000000000000000000000000000815260040161052390611cd8565b60405180910390fd5b6000805b600080549050811015610685578773ffffffffffffffffffffffffffffffffffffffff166000828154811061056857610567611ab7565b5b906000526020600020906003020160010160009054906101000a900473ffffffffffffffffffffffffffffffffffffffff1673ffffffffffffffffffffffffffffffffffffffff161415610672576001915060018360010160146101000a81548160ff021916908315150217905550878360020160006101000a81548173ffffffffffffffffffffffffffffffffffffffff021916908373ffffffffffffffffffffffffffffffffffffffff1602179055506000818154811061062e5761062d611ab7565b5b9060005260206000209060030201600201600081548092919061065090611b6b565b91905055506003600081548092919061066890611b6b565b9190505550610685565b808061067d90611b6b565b915050610530565b50806106c6576040517f08c379a00000000000000000000000000000000000000000000000000000000081526004016106bd90611d44565b60405180910390fd5b50505050505050565b606060006040518060200160405280600081525090506000805b60008054905081101561080f57816000828154811061070b5761070a611ab7565b5b90600052602060002090600302016002015411156107fc576000818154811061073757610736611ab7565b5b90600052602060002090600302016002015491506000818154811061075f5761075e611ab7565b5b9060005260206000209060030201600001805461077b90611d93565b80601f01602080910402602001604051908101604052809291908181526020018280546107a790611d93565b80156107f45780601f106107c9576101008083540402835291602001916107f4565b820191906000526020600020905b8154815290600101906020018083116107d757829003601f168201915b505050505092505b808061080790611b6b565b9150506106e9565b5060405160200161081f90611df6565b60405160208183030381529060405280519060200120826040516020016108469190611e3c565b60405160208183030381529060405280519060200120141561089d576040517f08c379a000000000000000000000000000000000000000000000000000000000815260040161089490611e9f565b60405180910390fd5b819250505090565b600081815481106108b557600080fd5b90600052602060002090600302016000915090508060000180546108d890611d93565b80601f016020809104026020016040519081016040528092919081815260200182805461090490611d93565b80156109515780601f1061092657610100808354040283529160200191610951565b820191906000526020600020905b81548152906001019060200180831161093457829003601f168201915b5050505050908060010160009054906101000a900473ffffffffffffffffffffffffffffffffffffffff16908060020154905083565b6000808251116109cc576040517f08c379a00000000000000000000000000000000000000000000000000000000081526004016109c390611f0b565b60405180910390fd5b60005b600080549050811015610a6c57826040516020016109ed9190611e3c565b6040516020818303038152906040528051906020012060008281548110610a1757610a16611ab7565b5b9060005260206000209060030201600001604051602001610a389190611fbf565b604051602081830303815290604052805190602001201415610a5957610a6c565b8080610a6490611b6b565b9150506109cf565b6000805490508110610ab3576040517f08c379a0000000000000000000000000000000000000000000000000000000008152600401610aaa90611d44565b60405180910390fd5b6000808281548110610ac857610ac7611ab7565b5b9060005260206000209060030201600201541415610aea576000915050610b2d565b600354606460008381548110610b0357610b02611ab7565b5b906000526020600020906003020160020154610b1f9190611fd6565b610b29919061205f565b9150505b919050565b600260009054906101000a900473ffffffffffffffffffffffffffffffffffffffff1673ffffffffffffffffffffffffffffffffffffffff163373ffffffffffffffffffffffffffffffffffffffff1614610bc2576040517f08c379a0000000000000000000000000000000000000000000000000000000008152600401610bb990612102565b60405180910390fd5b80600260009054906101000a900473ffffffffffffffffffffffffffffffffffffffff1673ffffffffffffffffffffffffffffffffffffffff168173ffffffffffffffffffffffffffffffffffffffff161415610c54576040517f08c379a0000000000000000000000000000000000000000000000000000000008152600401610c4b90611a97565b60405180910390fd5b6000600190506001808054905010610d145760005b600180549050811015610d12578273ffffffffffffffffffffffffffffffffffffffff1660018281548110610ca157610ca0611ab7565b5b906000526020600020906003020160010160009054906101000a900473ffffffffffffffffffffffffffffffffffffffff1673ffffffffffffffffffffffffffffffffffffffff161415610cff57600182610cfc9190611b15565b91505b8080610d0a90611b6b565b915050610c69565b505b60018111158015610d2a57506001808054905011155b610d69576040517f08c379a0000000000000000000000000000000000000000000000000000000008152600401610d6090611c00565b60405180910390fd5b600060405180608001604052808681526020018573ffffffffffffffffffffffffffffffffffffffff1681526020016001151581526020013373ffffffffffffffffffffffffffffffffffffffff16815250905060018190806001815401808255809150506001900390600052602060002090600302016000909190919091506000820151816000019080519060200190610e059291906114b2565b5060208201518160010160006101000a81548173ffffffffffffffffffffffffffffffffffffffff021916908373ffffffffffffffffffffffffffffffffffffffff16021790555060408201518160010160146101000a81548160ff02191690831515021790555060608201518160020160006101000a81548173ffffffffffffffffffffffffffffffffffffffff021916908373ffffffffffffffffffffffffffffffffffffffff16021790555050507ffb56e28feaff07a8d23b3119a966e036ae7f64ff72a539debc67c6e8cd7872168585604051610ee7929190612122565b60405180910390a15050505050565b600260009054906101000a900473ffffffffffffffffffffffffffffffffffffffff1673ffffffffffffffffffffffffffffffffffffffff163373ffffffffffffffffffffffffffffffffffffffff1614610f86576040517f08c379a0000000000000000000000000000000000000000000000000000000008152600401610f7d90612102565b60405180910390fd5b80600260009054906101000a900473ffffffffffffffffffffffffffffffffffffffff1673ffffffffffffffffffffffffffffffffffffffff168173ffffffffffffffffffffffffffffffffffffffff161415611018576040517f08c379a000000000000000000000000000000000000000000000000000000000815260040161100f906121c4565b60405180910390fd5b6000600190506001600080549050106110d95760005b6000805490508110156110d7578273ffffffffffffffffffffffffffffffffffffffff166000828154811061106657611065611ab7565b5b906000526020600020906003020160010160009054906101000a900473ffffffffffffffffffffffffffffffffffffffff1673ffffffffffffffffffffffffffffffffffffffff1614156110c4576001826110c19190611b15565b91505b80806110cf90611b6b565b91505061102e565b505b600181111580156110f05750600160008054905011155b61112f576040517f08c379a000000000000000000000000000000000000000000000000000000000815260040161112690611c00565b60405180910390fd5b600060405180606001604052808681526020018573ffffffffffffffffffffffffffffffffffffffff16815260200160008152509050600081908060018154018082558091505060019003906000526020600020906003020160009091909190915060008201518160000190805190602001906111ad9291906114b2565b5060208201518160010160006101000a81548173ffffffffffffffffffffffffffffffffffffffff021916908373ffffffffffffffffffffffffffffffffffffffff160217905550604082015181600201555050600160008054905061121391906121e4565b7f4a2b8fc2ad6942aee90121e13dfd713889e03d0b1cbd9c0b708c71e9168d01158686604051611244929190612122565b60405180910390a25050505050565b60008060009050600080600090505b600080549050811015611307578473ffffffffffffffffffffffffffffffffffffffff166000828154811061129a57611299611ab7565b5b906000526020600020906003020160010160009054906101000a900473ffffffffffffffffffffffffffffffffffffffff1673ffffffffffffffffffffffffffffffffffffffff1614156112f45760019250809150611307565b80806112ff90611b6b565b915050611262565b5081611348576040517f08c379a000000000000000000000000000000000000000000000000000000000815260040161133f90611d44565b60405180910390fd5b6000818154811061135c5761135b611ab7565b5b90600052602060002090600302016002015492505050919050565b6001818154811061138757600080fd5b90600052602060002090600302016000915090508060000180546113aa90611d93565b80601f01602080910402602001604051908101604052809291908181526020018280546113d690611d93565b80156114235780601f106113f857610100808354040283529160200191611423565b820191906000526020600020905b81548152906001019060200180831161140657829003601f168201915b5050505050908060010160009054906101000a900473ffffffffffffffffffffffffffffffffffffffff16908060010160149054906101000a900460ff16908060020160009054906101000a900473ffffffffffffffffffffffffffffffffffffffff16905084565b600260009054906101000a900473ffffffffffffffffffffffffffffffffffffffff1681565b8280546114be90611d93565b90600052602060002090601f0160209004810192826114e05760008555611527565b82601f106114f957805160ff1916838001178555611527565b82800160010185558215611527579182015b8281111561152657825182559160200191906001019061150b565b5b5090506115349190611538565b5090565b5b80821115611551576000816000905550600101611539565b5090565b6000819050919050565b61156881611555565b82525050565b6000602082019050611583600083018461155f565b92915050565b6000604051905090565b600080fd5b600080fd5b600073ffffffffffffffffffffffffffffffffffffffff82169050919050565b60006115c88261159d565b9050919050565b6115d8816115bd565b81146115e357600080fd5b50565b6000813590506115f5816115cf565b92915050565b6000806040838503121561161257611611611593565b5b6000611620858286016115e6565b9250506020611631858286016115e6565b9150509250929050565b600081519050919050565b600082825260208201905092915050565b60005b8381101561167557808201518184015260208101905061165a565b83811115611684576000848401525b50505050565b6000601f19601f8301169050919050565b60006116a68261163b565b6116b08185611646565b93506116c0818560208601611657565b6116c98161168a565b840191505092915050565b600060208201905081810360008301526116ee818461169b565b905092915050565b6116ff81611555565b811461170a57600080fd5b50565b60008135905061171c816116f6565b92915050565b60006020828403121561173857611737611593565b5b60006117468482850161170d565b91505092915050565b611758816115bd565b82525050565b60006060820190508181036000830152611778818661169b565b9050611787602083018561174f565b611794604083018461155f565b949350505050565b600080fd5b600080fd5b7f4e487b7100000000000000000000000000000000000000000000000000000000600052604160045260246000fd5b6117de8261168a565b810181811067ffffffffffffffff821117156117fd576117fc6117a6565b5b80604052505050565b6000611810611589565b905061181c82826117d5565b919050565b600067ffffffffffffffff82111561183c5761183b6117a6565b5b6118458261168a565b9050602081019050919050565b82818337600083830152505050565b600061187461186f84611821565b611806565b9050828152602081018484840111156118905761188f6117a1565b5b61189b848285611852565b509392505050565b600082601f8301126118b8576118b761179c565b5b81356118c8848260208601611861565b91505092915050565b6000602082840312156118e7576118e6611593565b5b600082013567ffffffffffffffff81111561190557611904611598565b5b611911848285016118a3565b91505092915050565b6000806040838503121561193157611930611593565b5b600083013567ffffffffffffffff81111561194f5761194e611598565b5b61195b858286016118a3565b925050602061196c858286016115e6565b9150509250929050565b60006020828403121561198c5761198b611593565b5b600061199a848285016115e6565b91505092915050565b60008115159050919050565b6119b8816119a3565b82525050565b600060808201905081810360008301526119d8818761169b565b90506119e7602083018661174f565b6119f460408301856119af565b611a01606083018461174f565b95945050505050565b6000602082019050611a1f600083018461174f565b92915050565b7f41646d696e20616e6420566f7465722068617665207468652073616d6520416460008201527f6472657373000000000000000000000000000000000000000000000000000000602082015250565b6000611a81602583611646565b9150611a8c82611a25565b604082019050919050565b60006020820190508181036000830152611ab081611a74565b9050919050565b7f4e487b7100000000000000000000000000000000000000000000000000000000600052603260045260246000fd5b7f4e487b7100000000000000000000000000000000000000000000000000000000600052601160045260246000fd5b6000611b2082611555565b9150611b2b83611555565b9250827fffffffffffffffffffffffffffffffffffffffffffffffffffffffffffffffff03821115611b6057611b5f611ae6565b5b828201905092915050565b6000611b7682611555565b91507fffffffffffffffffffffffffffffffffffffffffffffffffffffffffffffffff821415611ba957611ba8611ae6565b5b600182019050919050565b7f496e76616c696420446f75626c656420526567697374726174696f6e00000000600082015250565b6000611bea601c83611646565b9150611bf582611bb4565b602082019050919050565b60006020820190508181036000830152611c1981611bdd565b9050919050565b7f566f746572206e6f7420666f756e642e00000000000000000000000000000000600082015250565b6000611c56601083611646565b9150611c6182611c20565b602082019050919050565b60006020820190508181036000830152611c8581611c49565b9050919050565b7f54686520766f7465722068617320616c726561647920766f7465642e00000000600082015250565b6000611cc2601c83611646565b9150611ccd82611c8c565b602082019050919050565b60006020820190508181036000830152611cf181611cb5565b9050919050565b7f496e76616c69642063616e6469646174652e0000000000000000000000000000600082015250565b6000611d2e601283611646565b9150611d3982611cf8565b602082019050919050565b60006020820190508181036000830152611d5d81611d21565b9050919050565b7f4e487b7100000000000000000000000000000000000000000000000000000000600052602260045260246000fd5b60006002820490506001821680611dab57607f821691505b60208210811415611dbf57611dbe611d64565b5b50919050565b600081905092915050565b50565b6000611de0600083611dc5565b9150611deb82611dd0565b600082019050919050565b6000611e0182611dd3565b9150819050919050565b6000611e168261163b565b611e208185611dc5565b9350611e30818560208601611657565b80840191505092915050565b6000611e488284611e0b565b915081905092915050565b7f496e76616c69642043616e646964617465000000000000000000000000000000600082015250565b6000611e89601183611646565b9150611e9482611e53565b602082019050919050565b60006020820190508181036000830152611eb881611e7c565b9050919050565b7f43616e646964617465206e616d652063616e6e6f7420626520656d7074790000600082015250565b6000611ef5601e83611646565b9150611f0082611ebf565b602082019050919050565b60006020820190508181036000830152611f2481611ee8565b9050919050565b60008190508160005260206000209050919050565b60008154611f4d81611d93565b611f578186611dc5565b94506001821660008114611f725760018114611f8357611fb6565b60ff19831686528186019350611fb6565b611f8c85611f2b565b60005b83811015611fae57815481890152600182019150602081019050611f8f565b838801955050505b50505092915050565b6000611fcb8284611f40565b915081905092915050565b6000611fe182611555565b9150611fec83611555565b9250817fffffffffffffffffffffffffffffffffffffffffffffffffffffffffffffffff048311821515161561202557612024611ae6565b5b828202905092915050565b7f4e487b7100000000000000000000000000000000000000000000000000000000600052601260045260246000fd5b600061206a82611555565b915061207583611555565b92508261208557612084612030565b5b828204905092915050565b7f4163636573732044656e6965642c20456e74657220636f72726563742064657460008201527f61696c7320666f722041646d696e2e0000000000000000000000000000000000602082015250565b60006120ec602f83611646565b91506120f782612090565b604082019050919050565b6000602082019050818103600083015261211b816120df565b9050919050565b6000604082019050818103600083015261213c818561169b565b905061214b602083018461174f565b9392505050565b7f41646d696e20616e642043616e6469646174652068617665207468652073616d60008201527f6520416464726573730000000000000000000000000000000000000000000000602082015250565b60006121ae602983611646565b91506121b982612152565b604082019050919050565b600060208201905081810360008301526121dd816121a1565b9050919050565b60006121ef82611555565b91506121fa83611555565b92508282101561220d5761220c611ae6565b5b82820390509291505056fea26469706673582212200f41483a8b7d045b47195e7840de7a241e28065fc623b9effbf2bc61d7addb3064736f6c63430008090033",
  "linkReferences": {},
  "deployedLinkReferences": {}
}